:020000040800F2
:1000000068060020AD0200086104000859040008D9
:100010005D040008530400084105000800000000CA
:10002000000000000000000000000000A50400081F
:100030005704000800000000A3040008A7040008FB
:10004000C7020008C7020008C7020008C70200086C
:10005000C7020008C7020008C7020008C70200085C
:10006000C7020008C7020008C7020008C70200084C
:10007000C7020008C7020008C7020008C70200083C
:10008000C7020008C7020008C7020008C70200082C
:10009000C7020008C7020008C7020008C70200081C
:1000A000C7020008C7020008C7020008C70200080C
:1000B000C7020008C7020008C7020008C7020008FC
:1000C000C7020008C7020008C7020008C7020008EC
:1000D000C7020008C7020008C7020008C7020008DC
:1000E000C7020008C7020008C7020008C7020008CC
:1000F000C7020008C7020008C7020008C7020008BC
:10010000C7020008C7020008C7020008C7020008AB
:10011000C7020008C7020008C7020008C70200089B
:10012000C7020008C7020008C7020008C70200088B
:10013000C7020008C7020008C7020008C70200087B
:10014000C7020008C7020008C7020008C70200086B
:10015000C7020008C702000800000000C70200082C
:10016000C7020008C70200080000000000000000ED
:10017000C7020008C7020008C7020008000000000C
:1001800000000000C7020008C7020008C7020008FC
:10019000C70200080000000000000000000000008E
:1001A000000000000000000000000000C70200087E
:1001B000C702000800000000C7020008000000009D
:1001C000000000000000000000000000000000002F
:1001D0000000000000000000C7020008C70200087D
:1001E000C7020008C7020008C7020008C7020008CB
:1001F000C7020008C7020008C7020008C7020008BB
:10020000C7020008C7020008C702000800F002F891
:1002100000F03CF80AA090E8000C82448344AAF164
:100220000107DA4501D100F031F8AFF2090EBAE862
:100230000F0013F0010F18BFFB1A43F0010318471A
:100240007010000090100000103A24BF78C878C1E8
:10025000FAD8520724BF30C830C144BF04680C60CC
:10026000704700000023002400250026103A28BF14
:1002700078C1FBD8520728BF30C148BF0B60704718
:100280001FB500F0F2FF1FBD10B510BD00F0A8F8BB
:100290001146FFF7F5FF00F0AEFC00F0C6F803B41E
:1002A000FFF7F2FF03BC00F0CDF8000009488047DB
:1002B00009480047FEE7FEE7FEE7FEE7FEE7FEE748
:1002C000FEE7FEE7FEE7FEE704480549054A064B60
:1002D00070470000B10400080D020008680000200B
:1002E00068060020680200206802002053EA020C21
:1002F00000F069802DE9F04B4FF00006002B1FBF86
:10030000B3FA83F503FA05F424FA05F65E4012BF4A
:100310001643B2FA82F502FA05F4C5F120051EBFB4
:1003200022FA05FC44EA0C04203556EA044C4FEA54
:10033000144418BF641C4FF000084FF000099042AD
:1003400071EB030C39D3002919BFB1FA81F701FA17
:1003500007F6B0FA80F700FA07F6C7F120071EBFCC
:1003600020FA07FC46EA0C062037B6FBF4FCA7EBA4
:100370000507103F07F01F0BCBF120060CFA0BFB13
:100380002CFA06F644BFB3460026202FA4BF5E46D3
:100390004FF0000B5BEA060C08BF4FF0010B19EBA6
:1003A0000B09ABFB027C48EB0608C01B06FB02CC2A
:1003B0000BFB03CC71EB0C01C1E70B460246414637
:1003C0004846BDE8F08B13B54FF000004FF0000138
:1003D000AFF30080BDE81C4070477047704770471E
:1003E000754600F02BF8AE4605006946534620F0EE
:1003F0000700854618B020B5FFF766FFBDE820402E
:100400004FF000064FF000074FF000084FF0000BD0
:1004100021F00701AC46ACE8C009ACE8C009ACE883
:10042000C009ACE8C0098D46704710B50446AFF36B
:1004300000802046BDE81040FFF731BF00487047FC
:100440000800002001491820ABBEFEE7260002008C
:10045000704700BFFEE7704700BFFEE700BFFEE742
:100460007047F0B503460C4603F00701C1F10700E1
:10047000042801D9042001E0C1F107000646081D47
:10048000072801D2002000E0C81E05460120B04028
:10049000401E2040A8400127AF407F1E1740384330
:1004A000F0BD7047704710B500F0BAFE10BD0000F7
:1004B0001F48006840F470001D4908601D4800682E
:1004C00020F00100401C1B49086000BF194800686B
:1004D000C0F340000028F9D016480830006820F02A
:1004E000030014490831086000BF12480830006852
:1004F000C0F381000028F8D10E4800680E4908407A
:100500000C49086000200B49083108600B48091F9E
:10051000086000200749A03108604FF41F0005491A
:100520000C3108604FF00060014980390860704765
:1005300088ED00E000380240FFFFF2FE02300300C9
:1005400000BFFEE702480068C0F3022070470000C9
:100550000CED00E010B5002804DB0A07130E054A75
:10056000135406E00A07140E034A00F00F031B1F82
:10057000D45410BD00E400E018ED00E00349096820
:1005800060F30711014A116070470000083802400B
:100590000349096860F38C21014A1160704700002B
:1005A000083802400349096860F34F31014A11607D
:1005B0007047000008380240012807D10749096840
:1005C00021F030013031054A116005E00349096826
:1005D00021F03001014A116070470000A438024048
:1005E00005282BD2DFE800F0030A11182100154A74
:1005F000126861F30002134B1A6020E0114A12687E
:1006000061F310420F4B1A6019E00E4A126861F351
:1006100018620C4B1A6012E00A4A7032126861F3D9
:100620000002084B70331A6009E0064A74321268FF
:1006300061F30002034B74331A6000E000BF00BF97
:1006400070470000003802402DE9FE4F04464FF08D
:100650000009CA46CB4600200290019000250026E2
:1006600000F036F90090009820B1012812D002283D
:100670003FD112E031480068C0F3803038B12F48D4
:100680000068C0F3003010B12D48206001E02D4813
:10069000206031E02B4820602EE028489C3800681C
:1006A000C0F38050029025489C380068C0F3881938
:1006B00022489C38006800F00F0A20489C380068E7
:1006C000C0F30240204911F800B0029810B91D484B
:1006D000019001E01B4801900AFB0BFC0198A0FB74
:1006E00009700146624600233846FFF7FFFD20608F
:1006F00002E01448206000BF00BF1048983800682E
:10070000C0F303151148465D2068F04060600B4857
:1007100098380068C0F382250D48465D6068F04057
:10072000E060064898380068C0F342350948465DE5
:100730006068F040A060BDE8FE8F0000A038024075
:10074000006CDC0200127A00941200087412000897
:10075000841200088C12000810B501460020094BD5
:1007600003EB1142D2F8002801F01F040123A3403B
:100770001A4001F01F040123A3409A4200D000E078
:10078000012010BD0030024010B501290FD1104BDF
:1007900003EB1042D2F8002800F01F040123A3400D
:1007A0001A430B4C04EB1043C3F800280EE0084B2F
:1007B00003EB1042D2F8002800F01F040123A340ED
:1007C0009A43034C04EB1043C3F8002810BD00000B
:1007D0000030024030B538B90F4C246824F48054FE
:1007E00004F580540C4D2C600B4C9C3C246860F349
:1007F0009654094D9C3D2C602C46246861F38E1460
:100800002C602C46246862F303042C602C46246878
:1008100063F312442C6030BDA03802401A480068CF
:1008200020F00100401C1849086000BF164800680D
:10083000C0F340000028F9D013480830006820F0C9
:10084000030011490831086000BF0F4808300068F4
:10085000C0F381000028F8D10B4800680B4908401C
:100860000949086000200849083108600848091F44
:10087000086000200449A03108604FF41F000249BD
:100880000C3108607047000000380240FFFFF2FEA4
:10089000023003000D49096860F301010B4A116041
:1008A00000BF00BF00BF00BF00BF00BF00BF00BF50
:1008B00000BF00BF00BF00BF00BF00BF00BF00BF40
:1008C00000BF00BF00BF00BF7047000008380240F3
:1008D00002480068C0F381007047000008380240F9
:1008E0004FF6FF7101600021817101714171012199
:1008F000C171704770B50A4600211488A3B233E075
:1009000003F001046CB304684E000325B540AC430A
:10091000046094794D00AC4005682C430460446841
:1009200001258D40AC434460446815798D402C43CB
:10093000446084684E000325B540AC438460D4799C
:100940004D00AC4085682C438460C4684E0003258C
:10095000B540AC43C46054794D00AC40C5682C43ED
:10096000C4605B104C1CA1B2002BC9DC70BDF0B59B
:10097000002300244D07ED0E02FA05F3CD105DB102
:10098000456A4E07F70E0F26BE40B5434562456ADD
:1009900045EA030444620AE0056A4E07F70E0F2693
:1009A000BE40B5430562056A45EA03040462F0BD32
:1009B000002101704170022141600121017200217A
:1009C000417281727047C26961F38A22C2617047C5
:1009D0002DE9FF4704460D464FF0000802274FF06F
:1009E000000900266868022801D100BF51E068466E
:1009F000FFF72AFEDDF800806878032802D06878C7
:100A0000042823D1A87A012809D14FEAD81000EB95
:100A1000800040006968B0FBF1F0461D39E0287A9B
:100A2000012809D14FEA181000EB800040006968E6
:100A3000B0FBF1F0461D2CE04FEA581000EB8000AF
:100A400040006968B0FBF1F0461D22E0A87A012859
:100A500009D14FEA182000EB800040006968B0FB24
:100A6000F1F0461D15E0287A012809D14FEA581007
:100A700000EB800040006968B0FBF1F0461D08E023
:100A80004FEA981000EB800040006968B0FBF1F07D
:100A9000461D0A20B6FBF0F606F00109A6EB090098
:100AA0004708022F02D3B7F5806F02D34FF0000939
:100AB0000227206A69F308202062FF2F09D9390A2A
:100AC000206A61F38B202062206A67F307002062AE
:100AD00007E0206A20F440602062206A67F3070084
:100AE0002062687804280AD1E06920F08000803014
:100AF000E061E06920F030003030E06130E068789B
:100B0000032809D1E06920F08000E061E06920F06D
:100B100030003030E06123E06878022809D1E069D4
:100B200020F08000E061E06920F030002030E061DA
:100B300016E06878012809D1E06920F08000E061C2
:100B4000E06920F030001030E06109E0687838B9E1
:100B5000E06920F08000E061E06920F03000E061B1
:100B6000287A012808D1E06920F00100E061E069FD
:100B700020F00600E06127E0287A022809D1E06928
:100B800020F00100401CE061E06920F00600E06117
:100B90001AE0287A03280AD1E06920F00100401CFD
:100BA000E061E06920F00600801CE0610CE0287A3A
:100BB000042809D1E06920F00100401CE061E069EF
:100BC00020F00600001DE061697AE06961F3C3006E
:100BD000E061A97A206A61F3492020622978E069FE
:100BE00061F30920E061E06920F4006000F5006035
:100BF000E061BDE8FF8700F0B7FA00F0E7F900F028
:100C000085F900F019FB00F0FBF900F017F900BFBF
:100C1000FEE7000000BF00F00702064B19684FF620
:100C2000FF031940044B0B4343EA0221014B1960B7
:100C300000BF70470CED00E00000FA05016C21F4E4
:100C4000807101F5807101640849884205D1016C09
:100C500021F03F013831016407E00549884204D1A1
:100C6000016C21F03F01323101647047001000A097
:100C7000002000A0026961F312420261704702691C
:100C800061F3020202617047026A61F30D3202628F
:100C90007047026A61F3092202627047026961F3D8
:100CA00004120261704710B500220369C3F30053B8
:100CB0008B4200D110BD00BF836903F00103002BFC
:100CC000FAD0402200E000BF131EA2F10104A2B23C
:100CD000F9D1036923F4002303F50023036100BF66
:100CE0000369C3F30023002BFAD1402200E000BFC8
:100CF000131EA2F10104A2B2F9D1036961F31453E6
:100D0000036100BF0369C3F30023002BFAD101295B
:100D100005D100BFC36BC3F3C003002BFAD100BFE2
:100D2000C8E700002DE9FC5F002400250026A1464D
:100D3000A246A34600200190FFF7CAFD009000984C
:100D400020B1012814D0022841D115E02B480068B9
:100D5000C0F3803040B129480068C0F3003018B1BA
:100D600027482849086002E027482649086032E001
:100D70002548244908602EE020489C380068C0F3CC
:100D800080591E489C380068C0F388141B489C3862
:100D9000006800F00F0519489C380068C0F3024055
:100DA0001A490E5CB9F1000F02D1DFF85CA001E036
:100DB000DFF854A005FB06FCAAFB0470014662465E
:100DC00000233846FFF792FA0E49086003E00E4808
:100DD0000C49086000BF00BF084898380068C0F39D
:100DE000031B0B4810F80B0001900648006801999E
:100DF000C84004490860BDE8FC9F0000A0380240DC
:100E0000006CDC020400002000127A00AA12000824
:100E10009A120008042808D14FF0E021096941F036
:100E200004014FF0E022116107E04FF0E021096971
:100E300021F004014FF0E0221161704700B585B048
:100E400003A8FFF74DFD6846FFF7B2FD0522042118
:100E50002B48FFF78CFD00208DF810008DF8110055
:100E600002208DF812008DF813001020039003A9C2
:100E70002348FFF73FFD052203212248FFF777FDB6
:100E800000208DF810008DF8110002208DF812005E
:100E90008DF813000820039003A91A48FFF72AFDD4
:100EA000052207211648FFF762FD00208DF810008B
:100EB0008DF8110002208DF812008DF813008020AB
:100EC000039003A90E48FFF715FD02208DF80000DE
:100ED00000208DF8010001208DF808004FF4FA5031
:100EE000019000208DF809008DF80A006946064837
:100EF000FFF76EFD01210448FFF765FD05B000BD59
:100F000000000240000402400030014070B50320A0
:100F1000FFF780FEFFF716FB054600221146FFF79C
:100F2000A0FA044621466FF00B00FFF713FBFFF712
:100F300009FB054600221146FFF793FA04462146B5
:100F40006FF00A00FFF706FBFFF7FCFA05460022E8
:100F50001146FFF786FA044621466FF00900FFF7B5
:100F6000F9FAFFF7EFFA054600221146FFF779FA82
:100F7000044621466FF00400FFF7ECFAFFF7E2FAAF
:100F8000054600221146FFF76CFA044621466FF031
:100F90000300FFF7DFFAFFF7D5FA054600220F211D
:100FA000FFF75FFA044621466FF00100FFF7D2FA1F
:100FB000FFF7C8FA054600220F21FFF752FA044650
:100FC00021464FF0FF30FFF7C5FA70BD10B5012183
:100FD0004FF44010FFF7D8FB01210648FFF7D4FB80
:100FE00001210548FFF7D0FB01210448FFF7CCFBA6
:100FF00010BD0000010030000E0038000C0044005D
:101000001CB56846FFF76CFC0A2201215348FFF724
:10101000AEFC02208DF8070000208DF804000220AD
:101020008DF80600009000208DF8050069464B48B9
:10103000FFF760FC0A2208214848FFF798FC0220CD
:101040008DF8070000208DF8040002208DF80600BE
:10105000C001009000208DF8050069463F48FFF769
:1010600049FC092200213D48FFF781FC02208DF850
:10107000070000208DF8040002208DF806000120F2
:10108000009000208DF8050069463448FFF732FCD7
:1010900009220F213248FFF76AFC02208DF8070071
:1010A00000208DF8040002208DF8060080030090D7
:1010B00000208DF8050069462948FFF71BFC09222E
:1010C00005212748FFF753FC02208DF80700002078
:1010D0008DF8040002208DF80600202000900020EA
:1010E0008DF8050069461E48FFF704FC092203211C
:1010F0001B48FFF73CFC02208DF8070000208DF80C
:10110000040002208DF806000820009000208DF8D1
:10111000050069461248FFF7EDFB00211148FFF773
:10112000C2FD03210F48FFF7AAFD00210D48FFF77C
:10113000B5FD00210B48FFF79DFD0A48FFF77EFD36
:1011400000210848FFF7A0FD00210648FFF7A1FD98
:1011500001210448FFF7A7FD1CBD00000004024068
:1011600000000240002000A010B5FFF757FB01214E
:101170002748FFF709FB2748006920F00700401CBB
:10118000244908612448006820F00300401C2249DB
:10119000086001210420FFF723FA00BF1F48FFF772
:1011A000DBFA0128FAD101210020FFF719FA00BF6C
:1011B0000120FFF7D1FA0128FAD102230122902160
:1011C0000020FFF707FB01210220FFF709FA00BF0B
:1011D0001920FFF7C1FA0128FAD10020FFF7CEF954
:1011E0000420FFF7DFF90420FFF7D2F90120FFF711
:1011F000E3F90220FFF74EFB00BFFFF769FB02286F
:10120000FBD10020FFF7D8F9FFF78CFD10BD0000DF
:101210001C00400000700040603C0240010074006F
:1012200010B500F001F810BD02480068401C0149EB
:1012300008607047000000201FB500246846FFF7D3
:1012400003FA019C0420FFF7E5FD4FF47A70B4FB2C
:10125000F0F0401E4FF0E021486100208861084610
:10126000006940F0030008611FBD4FF04070E1EEDF
:10127000100A704700000000000000000102030493
:101280000607080900000000010203040000000036
:101290000102030401020408102000000000000005
:1012A00000000102030406070809010204081020D7
:1012B000D0120008000000200800000048020008CA
:1012C000D812000808000020600600006402000830
:0812D0000000000000127A008A
:040000050800020DE0
:00000001FF
